:1000000001308A0047290000831A0A289000030E55
:1000100091000F2883129000030E910091140A089A
:1000200097008A018313900E040892000C08930035
:100030000D0894000E0895000F08960083128B1E81
:1000400023280B193F281208840013088C00140879
:100050008D0015088E0016088F0017088A00110EF3
:1000600083008312100E9118831609002608063C9F
:10007000031C3C2800303D2801308D0008009F0AF9
:100080009C0A9E0A190803199A0399031F08C83C81
:100090000318D628A50A25080A3C03185528A40ADF
:1000A0002408033C031CA401A50120302407AE0052
:1000B000831606148312061861282E088400001087
:1000C00064282E088400001420302407AE00831614
:1000D00086148312861870282E08840080107328D6
:1000E0002E088400801420302407AE0083160615E5
:1000F000831206197F282E088400001182282E08FA
:1001000084000015203024078400001889288611F7
:100110008A288615831686112030831224078400CE
:100120008018942806129528061683160612203089
:1001300083122407840000199F288612A02886169F
:10014000831686128312A601AD012D08033C031C01
:10015000BA2820302D0784000018A60A20302D0769
:1001600084008018A60A20302D0784000019A60AF2
:10017000AD0AA52836200030271801300D020319DA
:10018000C728A7142715362027100D182714A71CD9
:10019000D528A80A2808323C0318D528362027106D
:1001A0000D1827142711A801A7109F011C081B0276
:1001B0000318E8281C08C83C0318E4289C0183168F
:1001C000851083128514E828831685108312851004
:1001D0001E081D020318FA281E08C83C0318F6283A
:1001E0009E018316051083120514FA288316051044
:1001F000831205100B118A1123282C30840000086B
:100200000319082952308C008C0B0429800B022919
:1002100067292C089A002B0899009908031D0D29BD
:100220009A08031D0D290800C8309B0005309D0069
:100230002A08A9000230AA00AC01C830AB0009218D
:10024000080005309B00C8309D002A08A900013035
:10025000AA00AC01C830AB0009210800C8309B00DF
:100260009D002A08A900AA0108000F309B00C83091
:100270009D002A08A9000130AA000800C8309B0090
:100280000F309D002A08A9000230AA00080084014E
:100290001F3083059A0199019B019C019D019E01DC
:1002A0009F01A401A5012710A801A710831601082A
:1002B000C039810083128B168B17831605168312A3
:1002C000051A5D290230AB00FA30AC00FD28AB0BFB
:1002D0006429AA012030240784000030001801306E
:1002E0008C000C0DAB00AB0DAB0DF830AB05203026
:1002F000240784000030801801308C008C0D8C0D98
:10030000FC308C050C08AB0420302407840000303E
:10031000001901308C0003108C0D0C08AB04362042
:100320002B080D04F03E0318C029103EC229C02935
:100330002A08023C031D9E291421AD292A0BA2295B
:100340002121AD292908023C031DA8291421AD292A
:10035000290BAC292121AD292E21C0292E21C0290C
:100360002121C029271DB6293521B7293E21C029C1
:100370001421C029271DBE293E21BF293521C029AE
:100380006A2963000A148A100A118207982997299A
:10039000B829BA29AE29AE29B229B029B029B22983
:0C03A000AE29AE29BA29B829972998295E
:02400E00FA3F77
:00000001FF
;PIC16F84A
;CRC=26BC  CREATED="04-Mar-16 16:30"
